:1000000012C01FC01EC01DC0D4C01BC01AC0E7C094
:1000100018C017C016C015C014C013C012C011C03C
:1000200010C00FC00EC011241FBECFEDCDBF10E019
:10003000A0E6B0E001C01D92AA3CB107E1F72CD1C7
:1000400057C1DECFAF92BF92CF92DF92EF92FF9275
:100050000F931F93CF93DF9380916300682F70E01D
:10006000660F771F660F771FE0E040E050E0A2E4E4
:10007000BA2EF2E8CF2E32E0D32E20E5E22E22E097
:10008000F22E04E211E0CDEBD1E09AEBA92EA8E824
:10009000B3E16FC0C90183709070892B41F4F901FD
:1000A000F695E795F695E795EA59FF4FE081B0BEE2
:1000B0008C2D8A95F1F70000000000000000000080
:1000C000000000000000D0BE18BA8E2F90E08370B0
:1000D000907081309105B9F0823091051CF4892B24
:1000E00041F02CC082309105D9F0039709F026C069
:1000F00022C08A2D8A95F1F7000000000000000060
:10010000000000001BC0C7010197F1F700000000CC
:1001100000000000000000000000000000000EC011
:10012000C8010197F1F70000000000000000000086
:100130000000000003C0CE010197F1F7E695E695B7
:100140002F5F3F4F2617370708F4A4CFB0BE8C2D82
:100150008A95F1F700000000000000000000000098
:1001600000000000D0BE18BACD010197F1F74F5F33
:100170005F4F8091640090E04817590718F420E021
:1001800030E0E0CF5D9BFECF81E48CB9109262003D
:10019000109261001092630010926000DF91CF9185
:1001A0001F910F91FF90EF90DF90CF90BF90AF9095
:1001B00008951F920F920FB60F9211248F93809182
:1001C0006000882331F41092620010926100109256
:1001D00063008F910F900FBE0F901F9018951F9284
:1001E0000F920FB60F9211248F939F93EF93FF936B
:1001F0001DBC1CBC80916300882331F48CB18093BA
:100200006300109265003FC080916500882339F437
:100210008CB18093640081E08093650034C080914C
:100220006200843680F58091610080FD0FC0E0910E
:100230006200F0E08CB190E082959295907F9827D3
:10024000807F9827EA59FF4F808318C0E0916200B1
:10025000F0E0EA59FF4F90818CB18F70982B90831A
:10026000809162008F5F8093620090916200809124
:100270006300981719F481E0809360008091610019
:100280008F5F80936100FF91EF919F918F910F900D
:100290000FBE0F901F90189584B7877F84BF88E1A9
:1002A00081BD11BC12BA92E091BB18BA84E087BB41
:1002B00088E98AB986E083B912B88AE089B983E00F
:1002C00086BF90BF81E083BF80ED97E09BBD8ABD74
:1002D0001FBC8CE08EBD80E489BF78948091600063
:1002E0008823E1F3F894AEDE18BE1BB87894F6CFFD
:0402F000F894FFCFB0
:00000001FF
