:1000000012C01FC01EC01DC0D2C01BC01AC0E3C09A
:1000100018C017C016C015C014C013C012C011C03C
:1000200010C00FC00EC011241FBECFEDCDBF10E019
:10003000A0E6B0E001C01D92A93CB107E1F70DD1E7
:1000400038C1DECFAF92BF92CF92DF92EF92FF9294
:100050000F931F93CF93DF9380916200682F70E01E
:10006000660F771F660F771FE0E040E050E0A2E4E4
:10007000BA2EF2E8CF2E32E0D32E20E5E22E22E097
:10008000F22E04E211E0CDEBD1E09AEBA92EA8E824
:10009000B3E16FC0C90183709070892B41F4F901FD
:1000A000F695E795F695E795EB59FF4FE081B0BEE1
:1000B0008C2D8A95F1F70000000000000000000080
:1000C000000000000000D0BE18BA8E2F90E08370B0
:1000D000907081309105B9F0823091051CF4892B24
:1000E00041F02CC082309105D9F0039709F026C069
:1000F00022C08A2D8A95F1F7000000000000000060
:10010000000000001BC0C7010197F1F700000000CC
:1001100000000000000000000000000000000EC011
:10012000C8010197F1F70000000000000000000086
:100130000000000003C0CE010197F1F7E695E695B7
:100140002F5F3F4F2617370708F4A4CFB0BE8C2D82
:100150008A95F1F700000000000000000000000098
:1001600000000000D0BE18BACD010197F1F74F5F33
:100170005F4F8091630090E04817590718F420E022
:1001800030E0E0CF5D9BFECF81E48CB9109261003E
:100190001092620010926000DF91CF911F910F9139
:1001A000FF90EF90DF90CF90BF90AF9008951F9297
:1001B0000F920FB60F9211248F93809160008823C5
:1001C00021F410926100109262008F910F900FBE87
:1001D0000F901F9018951F920F920FB60F92112437
:1001E0008F939F93EF93FF931DBC1CBC8091620083
:1001F000882331F48CB1809362001092640024C093
:1002000080916400882339F48CB18093630081E08D
:100210008093640019C0809161008436A8F4E09155
:100220006100F0E08CB1EB59FF4F80838091610059
:100230008F5F8093610090916100809162009817B8
:1002400019F481E080936000FF91EF919F918F916D
:100250000F900FBE0F901F90189584B7877F84BFB3
:1002600088E181BD11BC12BA92E091BB18BA84E05A
:1002700087BB88E98AB986E083B912B88AE089B970
:1002800083E086BF90BF81E083BF80EA9FE09BBD93
:100290008ABD1FBC8CE08EBD80E489BF78948091BC
:1002A00060008823E1F3F894CDDE18BE1BB8789483
:0602B000F6CFF894FFCF29
:00000001FF
